:100000000C945D000C9485000C9485000C94850084
:100010000C9485000C9485000C9485000C9485004C
:100020000C9485000C9485000C9485000C9485003C
:100030000C9485000C9485000C9485000C9485002C
:100040000C9473020C9485000C9485000C9485002C
:100050000C9485000C9485000C9485000C9485000C
:100060000C9485000C94850000000008000201003B
:100070000003040700000000000000000000000072
:10008000250028002B0000000000240027002A0083
:10009000040404040404040402020202020203032E
:1000A0000303030301020408102040800102040836
:1000B0001020010204081020430311241FBECFEFBB
:1000C000D8E0DEBFCDBF11E0A0E0B1E0E4EDF6E0A6
:1000D00002C005900D92A633B107D9F721E0A6E33F
:1000E000B1E001C01D92A735B207E1F710E0CDE500
:1000F000D0E004C02197FE010E946203CC35D107F5
:10010000C9F70E94BD020C9468030C94000090E0B3
:10011000FC01EC55FF4F249180579F4FFC018491C7
:10012000882399F090E0880F991FFC01EA57FF4F50
:10013000A591B491FC01E458FF4F859194918FB73C
:10014000F894EC91E22BEC938FBF0895AF92BF929D
:10015000CF92DF92EF92FF920F931F93CF93DF9393
:100160006C017B018B01040F151FEB015E01AE18C2
:10017000BF08C017D10759F06991D601ED91FC91E4
:100180000190F081E02DC6010995892B79F7C50111
:10019000DF91CF911F910F91FF90EF90DF90CF9063
:1001A000BF90AF90089590E0FC01E859FF4F249173
:1001B000FC01EC55FF4F3491FC01E057FF4FE491F7
:1001C000EE23C9F0222339F0233001F1A8F42130C5
:1001D00019F1223029F1F0E0EE0FFF1FE458FF4F34
:1001E000A591B4918FB7F894EC91611126C0309528
:1001F0003E233C938FBF08952730A9F02830C9F0E3
:10020000243049F7809180008F7D03C08091800069
:100210008F7780938000DFCF84B58F7784BDDBCF6D
:1002200084B58F7DFBCF8091B0008F778093B00035
:10023000D2CF8091B0008F7DF9CF3E2BDACF0895D9
:1002400090E080E00895FC0101900020E9F73197EB
:10025000AF01481B590BBC018FE391E00C94A60041
:10026000CF93DF93EC0160E08E810E94D30061E0C8
:100270008E810E94D30060E08E810E94D3008BE8C3
:1002800091E00197F1F7DF91CF910895CF92DF923E
:10029000EF92FF920F931F93CF93DF936C017C013A
:1002A00087E0E80EF11CD0E0C0E0062F10E0B801B6
:1002B0000C2E02C0759567950A94E2F76170F701FC
:1002C00081917F010E94D3002196C430D10579F736
:1002D000C601DF91CF911F910F91FF90EF90DF90BA
:1002E000CF900C943001CF92DF92EF92FF920F9358
:1002F0001F93CF93DF93EC01F62E642F8C810E9425
:10030000D3008D818F3F19F060E00E94D3000F2D44
:1003100010E08F8584FF25C06E0187E0C80ED11CD8
:10032000F12CE12CB8010E2C02C0759567950A944A
:10033000E2F76170F60181916F010E94D300FFEF37
:10034000EF1AFF0A88E0E816F10461F7CE01DF91A9
:10035000CF911F910F91FF90EF90DF90CF900C9471
:100360003001B80184E0759567958A95E1F7CE0173
:100370000E9446016F2DCE01DF91CF911F910F9109
:10038000FF90EF90DF90CF900C94460140E0682FF3
:100390008FE391E00C947301CF93DF93613029F0E8
:1003A00090914E01986090934E016093520110928B
:1003B000530190E49093540180935501805C8093A5
:1003C0005601809143010E948700809144018F3F34
:1003D00011F00E948700809145010E948700CFE3C1
:1003E000D1E09E012F53314080914E0184FD0AC01F
:1003F00084E090E02196281739073CF48E810E9412
:100400008700EFCF88E090E0F5CF8BE39DE0019788
:10041000F1F760E0809143010E94D30060E0809199
:1004200045010E94D300809144018F3F19F060E0A4
:100430000E94D30080914E0184FD39C063E08FE3B8
:1004400091E00E944601CBE4D6E4CE010197F1F79A
:1004500063E08FE391E00E9446012197F1F763E0AA
:100460008FE391E00E94460183E592E00197F1F766
:1004700062E08FE391E00E94460180914E0180622C
:100480000E94C60184E080934F018CE00E94C60167
:1004900081E00E94C6018BE39FE10197F1F782E0C2
:1004A0008093500186E0DF91CF910C94C601806269
:1004B0000E94C6018BE496E40197F1F780914E010A
:1004C00080620E94C60183E592E00197F1F7809176
:1004D0004E0180620E94C601D0CF41E00E947301AC
:1004E00081E090E008951F920F920FB60F921124B1
:1004F0002F933F938F939F93AF93BF9380913B0133
:1005000090913C01A0913D01B0913E0130913A01A2
:1005100023E0230F2D3758F50196A11DB11D20931F
:100520003A0180933B0190933C01A0933D01B0932D
:100530003E018091360190913701A0913801B09130
:1005400039010196A11DB11D8093360190933701A9
:10055000A0933801B0933901BF91AF919F918F91D2
:100560003F912F910F900FBE0F901F90189526E886
:10057000230F0296A11DB11DD2CF789484B582605D
:1005800084BD84B5816084BD85B5826085BD85B537
:10059000816085BD80916E00816080936E001092B5
:1005A0008100809181008260809381008091810030
:1005B00081608093810080918000816080938000C1
:1005C0008091B10084608093B1008091B00081601F
:1005D0008093B00080917A00846080937A0080914B
:1005E0007A00826080937A0080917A0081608093A3
:1005F0007A0080917A00806880937A001092C1001E
:1006000064E084E10E94CC01E1E08091520181111B
:10061000E0E0E195F0E0E15CFE4F84898F5F806867
:100620000E94C6018CE091E00E942301E0915201FA
:10063000E33028F5E150F0E0E15CFE4F84898D5F06
:1006400080680E94C60180E291E00E942301E0914F
:100650005201E430B0F4E150F0E0E15CFE4F8489F7
:100660008A5F80680E94C6018CE291E00E942301AB
:10067000C0E0D0E02097F1F30E940000FBCFE2E061
:10068000DACFE3E0E9CFEFE3F1E01382128284E016
:1006900091E0918380838CE084838FEF85838BE06E
:1006A000868385E0878384E0808783E0818782E09A
:1006B00082871386148615861686178661E080E188
:1006C0000C94CC01EE0FFF1F0590F491E02D0994DE
:0406D000F894FFCFCC
:1006D400000000006D02A60020011F01536179652E
:1006E40064204D65686572616A204E6164696D00BD
:1006F40042617463683A20442D353900526F6C6C42
:060704003A203035000030
:00000001FF
